{
  "_format": "hh-sol-artifact-1",
  "contractName": "Challenge",
  "sourceName": "contracts/Challenge.sol",
  "abi": [
    {
      "inputs": [],
      "stateMutability": "nonpayable",
      "type": "constructor"
    },
    {
      "inputs": [],
      "name": "NotIdealValue",
      "type": "error"
    },
    {
      "inputs": [],
      "name": "ZeroNot",
      "type": "error"
    },
    {
      "anonymous": false,
      "inputs": [
        {
          "indexed": true,
          "internalType": "address",
          "name": "account",
          "type": "address"
        },
        {
          "indexed": true,
          "internalType": "address",
          "name": "operator",
          "type": "address"
        },
        {
          "indexed": false,
          "internalType": "bool",
          "name": "approved",
          "type": "bool"
        }
      ],
      "name": "ApprovalForAll",
      "type": "event"
    },
    {
      "anonymous": false,
      "inputs": [
        {
          "indexed": true,
          "internalType": "address",
          "name": "previousOwner",
          "type": "address"
        },
        {
          "indexed": true,
          "internalType": "address",
          "name": "newOwner",
          "type": "address"
        }
      ],
      "name": "OwnershipTransferred",
      "type": "event"
    },
    {
      "anonymous": false,
      "inputs": [
        {
          "indexed": true,
          "internalType": "address",
          "name": "operator",
          "type": "address"
        },
        {
          "indexed": true,
          "internalType": "address",
          "name": "from",
          "type": "address"
        },
        {
          "indexed": true,
          "internalType": "address",
          "name": "to",
          "type": "address"
        },
        {
          "indexed": false,
          "internalType": "uint256[]",
          "name": "ids",
          "type": "uint256[]"
        },
        {
          "indexed": false,
          "internalType": "uint256[]",
          "name": "values",
          "type": "uint256[]"
        }
      ],
      "name": "TransferBatch",
      "type": "event"
    },
    {
      "anonymous": false,
      "inputs": [
        {
          "indexed": true,
          "internalType": "address",
          "name": "operator",
          "type": "address"
        },
        {
          "indexed": true,
          "internalType": "address",
          "name": "from",
          "type": "address"
        },
        {
          "indexed": true,
          "internalType": "address",
          "name": "to",
          "type": "address"
        },
        {
          "indexed": false,
          "internalType": "uint256",
          "name": "id",
          "type": "uint256"
        },
        {
          "indexed": false,
          "internalType": "uint256",
          "name": "value",
          "type": "uint256"
        }
      ],
      "name": "TransferSingle",
      "type": "event"
    },
    {
      "anonymous": false,
      "inputs": [
        {
          "indexed": false,
          "internalType": "string",
          "name": "value",
          "type": "string"
        },
        {
          "indexed": true,
          "internalType": "uint256",
          "name": "id",
          "type": "uint256"
        }
      ],
      "name": "URI",
      "type": "event"
    },
    {
      "inputs": [],
      "name": "BalanceStock",
      "outputs": [
        {
          "components": [
            {
              "internalType": "uint256",
              "name": "peso1",
              "type": "uint256"
            },
            {
              "internalType": "uint256",
              "name": "peso5",
              "type": "uint256"
            },
            {
              "internalType": "uint256",
              "name": "peso10",
              "type": "uint256"
            },
            {
              "internalType": "uint256",
              "name": "peso20",
              "type": "uint256"
            },
            {
              "internalType": "uint256",
              "name": "peso50",
              "type": "uint256"
            },
            {
              "internalType": "uint256",
              "name": "peso100",
              "type": "uint256"
            }
          ],
          "internalType": "struct Challenge.Cash",
          "name": "",
          "type": "tuple"
        }
      ],
      "stateMutability": "view",
      "type": "function"
    },
    {
      "inputs": [
        {
          "internalType": "uint256",
          "name": "peso1",
          "type": "uint256"
        },
        {
          "internalType": "uint256",
          "name": "peso5",
          "type": "uint256"
        },
        {
          "internalType": "uint256",
          "name": "peso10",
          "type": "uint256"
        },
        {
          "internalType": "uint256",
          "name": "peso20",
          "type": "uint256"
        },
        {
          "internalType": "uint256",
          "name": "peso50",
          "type": "uint256"
        },
        {
          "internalType": "uint256",
          "name": "peso100",
          "type": "uint256"
        }
      ],
      "name": "ChangeStock",
      "outputs": [],
      "stateMutability": "nonpayable",
      "type": "function"
    },
    {
      "inputs": [
        {
          "internalType": "uint256",
          "name": "_value",
          "type": "uint256"
        }
      ],
      "name": "ConvertDenom",
      "outputs": [
        {
          "components": [
            {
              "internalType": "uint256",
              "name": "peso1",
              "type": "uint256"
            },
            {
              "internalType": "uint256",
              "name": "peso5",
              "type": "uint256"
            },
            {
              "internalType": "uint256",
              "name": "peso10",
              "type": "uint256"
            },
            {
              "internalType": "uint256",
              "name": "peso20",
              "type": "uint256"
            },
            {
              "internalType": "uint256",
              "name": "peso50",
              "type": "uint256"
            },
            {
              "internalType": "uint256",
              "name": "peso100",
              "type": "uint256"
            }
          ],
          "internalType": "struct Challenge.Cash",
          "name": "",
          "type": "tuple"
        }
      ],
      "stateMutability": "view",
      "type": "function"
    },
    {
      "inputs": [
        {
          "internalType": "uint256",
          "name": "_value",
          "type": "uint256"
        }
      ],
      "name": "Mint",
      "outputs": [],
      "stateMutability": "nonpayable",
      "type": "function"
    },
    {
      "inputs": [
        {
          "internalType": "address",
          "name": "account",
          "type": "address"
        },
        {
          "internalType": "uint256",
          "name": "id",
          "type": "uint256"
        }
      ],
      "name": "balanceOf",
      "outputs": [
        {
          "internalType": "uint256",
          "name": "",
          "type": "uint256"
        }
      ],
      "stateMutability": "view",
      "type": "function"
    },
    {
      "inputs": [
        {
          "internalType": "address[]",
          "name": "accounts",
          "type": "address[]"
        },
        {
          "internalType": "uint256[]",
          "name": "ids",
          "type": "uint256[]"
        }
      ],
      "name": "balanceOfBatch",
      "outputs": [
        {
          "internalType": "uint256[]",
          "name": "",
          "type": "uint256[]"
        }
      ],
      "stateMutability": "view",
      "type": "function"
    },
    {
      "inputs": [
        {
          "internalType": "address",
          "name": "account",
          "type": "address"
        },
        {
          "internalType": "address",
          "name": "operator",
          "type": "address"
        }
      ],
      "name": "isApprovedForAll",
      "outputs": [
        {
          "internalType": "bool",
          "name": "",
          "type": "bool"
        }
      ],
      "stateMutability": "view",
      "type": "function"
    },
    {
      "inputs": [],
      "name": "owner",
      "outputs": [
        {
          "internalType": "address",
          "name": "",
          "type": "address"
        }
      ],
      "stateMutability": "view",
      "type": "function"
    },
    {
      "inputs": [],
      "name": "renounceOwnership",
      "outputs": [],
      "stateMutability": "nonpayable",
      "type": "function"
    },
    {
      "inputs": [
        {
          "internalType": "address",
          "name": "from",
          "type": "address"
        },
        {
          "internalType": "address",
          "name": "to",
          "type": "address"
        },
        {
          "internalType": "uint256[]",
          "name": "ids",
          "type": "uint256[]"
        },
        {
          "internalType": "uint256[]",
          "name": "amounts",
          "type": "uint256[]"
        },
        {
          "internalType": "bytes",
          "name": "data",
          "type": "bytes"
        }
      ],
      "name": "safeBatchTransferFrom",
      "outputs": [],
      "stateMutability": "nonpayable",
      "type": "function"
    },
    {
      "inputs": [
        {
          "internalType": "address",
          "name": "from",
          "type": "address"
        },
        {
          "internalType": "address",
          "name": "to",
          "type": "address"
        },
        {
          "internalType": "uint256",
          "name": "id",
          "type": "uint256"
        },
        {
          "internalType": "uint256",
          "name": "amount",
          "type": "uint256"
        },
        {
          "internalType": "bytes",
          "name": "data",
          "type": "bytes"
        }
      ],
      "name": "safeTransferFrom",
      "outputs": [],
      "stateMutability": "nonpayable",
      "type": "function"
    },
    {
      "inputs": [
        {
          "internalType": "address",
          "name": "operator",
          "type": "address"
        },
        {
          "internalType": "bool",
          "name": "approved",
          "type": "bool"
        }
      ],
      "name": "setApprovalForAll",
      "outputs": [],
      "stateMutability": "nonpayable",
      "type": "function"
    },
    {
      "inputs": [
        {
          "internalType": "bytes4",
          "name": "interfaceId",
          "type": "bytes4"
        }
      ],
      "name": "supportsInterface",
      "outputs": [
        {
          "internalType": "bool",
          "name": "",
          "type": "bool"
        }
      ],
      "stateMutability": "view",
      "type": "function"
    },
    {
      "inputs": [
        {
          "internalType": "address",
          "name": "newOwner",
          "type": "address"
        }
      ],
      "name": "transferOwnership",
      "outputs": [],
      "stateMutability": "nonpayable",
      "type": "function"
    },
    {
      "inputs": [
        {
          "internalType": "uint256",
          "name": "",
          "type": "uint256"
        }
      ],
      "name": "uri",
      "outputs": [
        {
          "internalType": "string",
          "name": "",
          "type": "string"
        }
      ],
      "stateMutability": "view",
      "type": "function"
    }
  ],
  "bytecode": "0x60806040523480156200001157600080fd5b506040805160208101909152600081526200002c8162000097565b506200003833620000b0565b60016004556040805160c081018252603280825260056020830181905292820183905260026060830181905260808301819052601460a090930183905290835560068390556007929092556008829055600991909155600a55620001e5565b8051620000ac90600290602084019062000102565b5050565b600380546001600160a01b038381166001600160a01b0319831681179093556040519116919082907f8be0079c531659141344cd1fd0a4f28419497f9722a3daafe3b4186f6b6457e090600090a35050565b8280546200011090620001a8565b90600052602060002090601f0160209004810192826200013457600085556200017f565b82601f106200014f57805160ff19168380011785556200017f565b828001600101855582156200017f579182015b828111156200017f57825182559160200191906001019062000162565b506200018d92915062000191565b5090565b5b808211156200018d576000815560010162000192565b600181811c90821680620001bd57607f821691505b60208210811415620001df57634e487b7160e01b600052602260045260246000fd5b50919050565b611fd480620001f56000396000f3fe608060405234801561001057600080fd5b50600436106100f45760003560e01c806363ecea0911610097578063a22cb46511610066578063a22cb46514610247578063e985e9c51461025a578063f242432a14610296578063f2fde38b146102a957600080fd5b806363ecea09146101bd5780636df73b0b14610211578063715018a6146102245780638da5cb5b1461022c57600080fd5b80630e89341c116100d35780630e89341c146101575780632eb2c2d6146101775780634e1273f41461018a578063521f0106146101aa57600080fd5b8062fdd58e146100f957806301ffc9a71461011f5780630788370314610142575b600080fd5b61010c610107366004611953565b6102bc565b6040519081526020015b60405180910390f35b61013261012d366004611a4e565b610352565b6040519015158152602001610116565b610155610150366004611a88565b6103a4565b005b61016a610165366004611a88565b6105b1565b6040516101169190611c50565b610155610185366004611808565b610645565b61019d61019836600461197d565b610691565b6040516101169190611c0f565b6101556101b8366004611aa1565b6107bb565b6101c56107e0565b6040516101169190600060c082019050825182526020830151602083015260408301516040830152606083015160608301526080830151608083015260a083015160a083015292915050565b6101c561021f366004611a88565b610825565b610155610d6d565b6003546040516001600160a01b039091168152602001610116565b610155610255366004611917565b610d81565b6101326102683660046117d5565b6001600160a01b03918216600090815260016020908152604080832093909416825291909152205460ff1690565b6101556102a43660046118b2565b610d90565b6101556102b73660046117b3565b610dd5565b60006001600160a01b03831661032c5760405162461bcd60e51b815260206004820152602a60248201527f455243313135353a2061646472657373207a65726f206973206e6f742061207660448201526930b634b21037bbb732b960b11b60648201526084015b60405180910390fd5b506000908152602081815260408083206001600160a01b03949094168352929052205490565b60006001600160e01b03198216636cdb3d1360e11b148061038357506001600160e01b031982166303a24d0760e21b145b8061039e57506301ffc9a760e01b6001600160e01b03198316145b92915050565b600260045414156103f75760405162461bcd60e51b815260206004820152601f60248201527f5265656e7472616e637947756172643a207265656e7472616e742063616c6c006044820152606401610323565b6002600455600061040782610825565b80519091501561043157610431336001836000015160405180602001604052806000815250610e4e565b60208101511561045b5761045b336002836020015160405180602001604052806000815250610e4e565b60408101511561048557610485336003836040015160405180602001604052806000815250610e4e565b6060810151156104af576104af336004836060015160405180602001604052806000815250610e4e565b6080810151156104d9576104d9336005836080015160405180602001604052806000815250610e4e565b60a081015115610503576105033360068360a0015160405180602001604052806000815250610e4e565b805160058054600090610517908490611e06565b9091555050602081015160068054600090610533908490611e06565b909155505060408101516007805460009061054f908490611e06565b909155505060608101516008805460009061056b908490611e06565b9091555050608081015160098054600090610587908490611e06565b909155505060a0810151600a80546000906105a3908490611e06565b909155505060016004555050565b6060600280546105c090611e1d565b80601f01602080910402602001604051908101604052809291908181526020018280546105ec90611e1d565b80156106395780601f1061060e57610100808354040283529160200191610639565b820191906000526020600020905b81548152906001019060200180831161061c57829003601f168201915b50505050509050919050565b6001600160a01b03851633148061066157506106618533610268565b61067d5760405162461bcd60e51b815260040161032390611c63565b61068a8585858585610f62565b5050505050565b606081518351146106f65760405162461bcd60e51b815260206004820152602960248201527f455243313135353a206163636f756e747320616e6420696473206c656e677468604482015268040dad2e6dac2e8c6d60bb1b6064820152608401610323565b6000835167ffffffffffffffff81111561071257610712611ecc565b60405190808252806020026020018201604052801561073b578160200160208202803683370190505b50905060005b84518110156107b35761078685828151811061075f5761075f611eb6565b602002602001015185838151811061077957610779611eb6565b60200260200101516102bc565b82828151811061079857610798611eb6565b60209081029190910101526107ac81611e85565b9050610741565b509392505050565b6107c361113f565b600595909555600693909355600791909155600855600955600a55565b6107e8611676565b506040805160c081018252600554815260065460208201526007549181019190915260085460608201526009546080820152600a5460a082015290565b61082d611676565b8161084b5760405163046cc37d60e41b815260040160405180910390fd5b6040805160c081018252600554815260065460208201526007549181019190915260085460608201526009546080820152600a5460a082015261088c611676565b83600061089a606483611dc5565b1561095b5760a08401511561095b576108b4606483611dc5565b8460a0015110610917576108c9606483611dc5565b60a084015260646108da8382611de7565b6108e49190611dc5565b6108ee9082611dad565b90506108fb606483611dc5565b610906906064611de7565b6109109083611e06565b915061095b565b60a080850180519185019190915251610931906064611de7565b61093b9082611dad565b90508360a00151606461094e9190611de7565b6109589083611e06565b91505b610966603283611dc5565b15610a2757608084015115610a2757610980603283611dc5565b8460800151106109e357610995603283611dc5565b60808401526109a5603283611dc5565b6109b0906032611de7565b6109ba9082611dad565b90506109c7603283611dc5565b6109d2906032611de7565b6109dc9083611e06565b9150610a27565b6080808501805191850191909152516109fd906032611de7565b610a079082611dad565b905083608001516032610a1a9190611de7565b610a249083611e06565b91505b610a32601483611dc5565b15610af357606084015115610af357610a4c601483611dc5565b846060015110610aaf57610a61601483611dc5565b6060840152610a71601483611dc5565b610a7c906014611de7565b610a869082611dad565b9050610a93601483611dc5565b610a9e906014611de7565b610aa89083611e06565b9150610af3565b606080850180519185019190915251610ac9906014611de7565b610ad39082611dad565b905083606001516014610ae69190611de7565b610af09083611e06565b91505b610afe600a83611dc5565b15610bbf57604084015115610bbf57610b18600a83611dc5565b846040015110610b7b57610b2d600a83611dc5565b6040840152610b3d600a83611dc5565b610b4890600a611de7565b610b529082611dad565b9050610b5f600a83611dc5565b610b6a90600a611de7565b610b749083611e06565b9150610bbf565b604080850180519185019190915251610b9590600a611de7565b610b9f9082611dad565b90508360400151600a610bb29190611de7565b610bbc9083611e06565b91505b610bca600583611dc5565b15610c8b57602084015115610c8b57610be4600583611dc5565b846020015110610c4757610bf9600583611dc5565b6020840152610c09600583611dc5565b610c14906005611de7565b610c1e9082611dad565b9050610c2b600583611dc5565b610c36906005611de7565b610c409083611e06565b9150610c8b565b602080850180519185019190915251610c61906005611de7565b610c6b9082611dad565b905083602001516005610c7e9190611de7565b610c889083611e06565b91505b610c96600183611dc5565b15610d4257835115610d4257610cad600183611dc5565b845110610d0a57610cbf600183611dc5565b8352610ccc600183611dc5565b610cd7906001611de7565b610ce19082611dad565b9050610cee600183611dc5565b610cf9906001611de7565b610d039083611e06565b9150610d42565b835183528351610d1b906001611de7565b610d259082611dad565b8451909150610d35906001611de7565b610d3f9083611e06565b91505b85811015610d635760405163cfe765fd60e01b815260040160405180910390fd5b5090949350505050565b610d7561113f565b610d7f6000611199565b565b610d8c3383836111eb565b5050565b6001600160a01b038516331480610dac5750610dac8533610268565b610dc85760405162461bcd60e51b815260040161032390611c63565b61068a85858585856112cc565b610ddd61113f565b6001600160a01b038116610e425760405162461bcd60e51b815260206004820152602660248201527f4f776e61626c653a206e6577206f776e657220697320746865207a65726f206160448201526564647265737360d01b6064820152608401610323565b610e4b81611199565b50565b6001600160a01b038416610eae5760405162461bcd60e51b815260206004820152602160248201527f455243313135353a206d696e7420746f20746865207a65726f206164647265736044820152607360f81b6064820152608401610323565b336000610eba856113f6565b90506000610ec7856113f6565b90506000868152602081815260408083206001600160a01b038b16845290915281208054879290610ef9908490611dad565b909155505060408051878152602081018790526001600160a01b03808a1692600092918716917fc3d58168c5ae7397731d063d5bbf3d657854427343f4c083240f7aacaa2d0f62910160405180910390a4610f5983600089898989611441565b50505050505050565b8151835114610fc45760405162461bcd60e51b815260206004820152602860248201527f455243313135353a2069647320616e6420616d6f756e7473206c656e677468206044820152670dad2e6dac2e8c6d60c31b6064820152608401610323565b6001600160a01b038416610fea5760405162461bcd60e51b815260040161032390611cfa565b3360005b84518110156110d157600085828151811061100b5761100b611eb6565b60200260200101519050600085838151811061102957611029611eb6565b602090810291909101810151600084815280835260408082206001600160a01b038e1683529093529190912054909150818110156110795760405162461bcd60e51b815260040161032390611d3f565b6000838152602081815260408083206001600160a01b038e8116855292528083208585039055908b168252812080548492906110b6908490611dad565b92505081905550505050806110ca90611e85565b9050610fee565b50846001600160a01b0316866001600160a01b0316826001600160a01b03167f4a39dc06d4c0dbc64b70af90fd698a233a518aa5d07e595d983b8c0526c8f7fb8787604051611121929190611c22565b60405180910390a46111378187878787876115ac565b505050505050565b6003546001600160a01b03163314610d7f5760405162461bcd60e51b815260206004820181905260248201527f4f776e61626c653a2063616c6c6572206973206e6f7420746865206f776e65726044820152606401610323565b600380546001600160a01b038381166001600160a01b0319831681179093556040519116919082907f8be0079c531659141344cd1fd0a4f28419497f9722a3daafe3b4186f6b6457e090600090a35050565b816001600160a01b0316836001600160a01b0316141561125f5760405162461bcd60e51b815260206004820152602960248201527f455243313135353a2073657474696e6720617070726f76616c20737461747573604482015268103337b91039b2b63360b91b6064820152608401610323565b6001600160a01b03838116600081815260016020908152604080832094871680845294825291829020805460ff191686151590811790915591519182527f17307eab39ab6107e8899845ad3d59bd9653f200f220920489ca2b5937696c31910160405180910390a3505050565b6001600160a01b0384166112f25760405162461bcd60e51b815260040161032390611cfa565b3360006112fe856113f6565b9050600061130b856113f6565b90506000868152602081815260408083206001600160a01b038c1684529091529020548581101561134e5760405162461bcd60e51b815260040161032390611d3f565b6000878152602081815260408083206001600160a01b038d8116855292528083208985039055908a1682528120805488929061138b908490611dad565b909155505060408051888152602081018890526001600160a01b03808b16928c821692918816917fc3d58168c5ae7397731d063d5bbf3d657854427343f4c083240f7aacaa2d0f62910160405180910390a46113eb848a8a8a8a8a611441565b505050505050505050565b6040805160018082528183019092526060916000919060208083019080368337019050509050828160008151811061143057611430611eb6565b602090810291909101015292915050565b6001600160a01b0384163b156111375760405163f23a6e6160e01b81526001600160a01b0385169063f23a6e61906114859089908990889088908890600401611bca565b602060405180830381600087803b15801561149f57600080fd5b505af19250505080156114cf575060408051601f3d908101601f191682019092526114cc91810190611a6b565b60015b61157c576114db611ee2565b806308c379a0141561151557506114f0611efe565b806114fb5750611517565b8060405162461bcd60e51b81526004016103239190611c50565b505b60405162461bcd60e51b815260206004820152603460248201527f455243313135353a207472616e7366657220746f206e6f6e20455243313135356044820152732932b1b2b4bb32b91034b6b83632b6b2b73a32b960611b6064820152608401610323565b6001600160e01b0319811663f23a6e6160e01b14610f595760405162461bcd60e51b815260040161032390611cb2565b6001600160a01b0384163b156111375760405163bc197c8160e01b81526001600160a01b0385169063bc197c81906115f09089908990889088908890600401611b6c565b602060405180830381600087803b15801561160a57600080fd5b505af192505050801561163a575060408051601f3d908101601f1916820190925261163791810190611a6b565b60015b611646576114db611ee2565b6001600160e01b0319811663bc197c8160e01b14610f595760405162461bcd60e51b815260040161032390611cb2565b6040518060c001604052806000815260200160008152602001600081526020016000815260200160008152602001600081525090565b80356001600160a01b03811681146116c357600080fd5b919050565b600082601f8301126116d957600080fd5b813560206116e682611d89565b6040516116f38282611e58565b8381528281019150858301600585901b8701840188101561171357600080fd5b60005b8581101561173257813584529284019290840190600101611716565b5090979650505050505050565b600082601f83011261175057600080fd5b813567ffffffffffffffff81111561176a5761176a611ecc565b604051611781601f8301601f191660200182611e58565b81815284602083860101111561179657600080fd5b816020850160208301376000918101602001919091529392505050565b6000602082840312156117c557600080fd5b6117ce826116ac565b9392505050565b600080604083850312156117e857600080fd5b6117f1836116ac565b91506117ff602084016116ac565b90509250929050565b600080600080600060a0868803121561182057600080fd5b611829866116ac565b9450611837602087016116ac565b9350604086013567ffffffffffffffff8082111561185457600080fd5b61186089838a016116c8565b9450606088013591508082111561187657600080fd5b61188289838a016116c8565b9350608088013591508082111561189857600080fd5b506118a58882890161173f565b9150509295509295909350565b600080600080600060a086880312156118ca57600080fd5b6118d3866116ac565b94506118e1602087016116ac565b93506040860135925060608601359150608086013567ffffffffffffffff81111561190b57600080fd5b6118a58882890161173f565b6000806040838503121561192a57600080fd5b611933836116ac565b91506020830135801515811461194857600080fd5b809150509250929050565b6000806040838503121561196657600080fd5b61196f836116ac565b946020939093013593505050565b6000806040838503121561199057600080fd5b823567ffffffffffffffff808211156119a857600080fd5b818501915085601f8301126119bc57600080fd5b813560206119c982611d89565b6040516119d68282611e58565b8381528281019150858301600585901b870184018b10156119f657600080fd5b600096505b84871015611a2057611a0c816116ac565b8352600196909601959183019183016119fb565b5096505086013592505080821115611a3757600080fd5b50611a44858286016116c8565b9150509250929050565b600060208284031215611a6057600080fd5b81356117ce81611f88565b600060208284031215611a7d57600080fd5b81516117ce81611f88565b600060208284031215611a9a57600080fd5b5035919050565b60008060008060008060c08789031215611aba57600080fd5b505084359660208601359650604086013595606081013595506080810135945060a0013592509050565b600081518084526020808501945080840160005b83811015611b1457815187529582019590820190600101611af8565b509495945050505050565b6000815180845260005b81811015611b4557602081850181015186830182015201611b29565b81811115611b57576000602083870101525b50601f01601f19169290920160200192915050565b6001600160a01b0386811682528516602082015260a060408201819052600090611b9890830186611ae4565b8281036060840152611baa8186611ae4565b90508281036080840152611bbe8185611b1f565b98975050505050505050565b6001600160a01b03868116825285166020820152604081018490526060810183905260a060808201819052600090611c0490830184611b1f565b979650505050505050565b6020815260006117ce6020830184611ae4565b604081526000611c356040830185611ae4565b8281036020840152611c478185611ae4565b95945050505050565b6020815260006117ce6020830184611b1f565b6020808252602f908201527f455243313135353a2063616c6c6572206973206e6f7420746f6b656e206f776e60408201526e195c881b9bdc88185c1c1c9bdd9959608a1b606082015260800190565b60208082526028908201527f455243313135353a204552433131353552656365697665722072656a656374656040820152676420746f6b656e7360c01b606082015260800190565b60208082526025908201527f455243313135353a207472616e7366657220746f20746865207a65726f206164604082015264647265737360d81b606082015260800190565b6020808252602a908201527f455243313135353a20696e73756666696369656e742062616c616e636520666f60408201526939103a3930b739b332b960b11b606082015260800190565b600067ffffffffffffffff821115611da357611da3611ecc565b5060051b60200190565b60008219821115611dc057611dc0611ea0565b500190565b600082611de257634e487b7160e01b600052601260045260246000fd5b500490565b6000816000190483118215151615611e0157611e01611ea0565b500290565b600082821015611e1857611e18611ea0565b500390565b600181811c90821680611e3157607f821691505b60208210811415611e5257634e487b7160e01b600052602260045260246000fd5b50919050565b601f8201601f1916810167ffffffffffffffff81118282101715611e7e57611e7e611ecc565b6040525050565b6000600019821415611e9957611e99611ea0565b5060010190565b634e487b7160e01b600052601160045260246000fd5b634e487b7160e01b600052603260045260246000fd5b634e487b7160e01b600052604160045260246000fd5b600060033d1115611efb5760046000803e5060005160e01c5b90565b600060443d1015611f0c5790565b6040516003193d81016004833e81513d67ffffffffffffffff8160248401118184111715611f3c57505050505090565b8285019150815181811115611f545750505050505090565b843d8701016020828501011115611f6e5750505050505090565b611f7d60208286010187611e58565b509095945050505050565b6001600160e01b031981168114610e4b57600080fdfea264697066735822122020da36c40b075358bc8c517f2cca6814351d6e33c34d26682b355979ec1c155764736f6c63430008060033",
  "linkReferences": {},
  "deployedLinkReferences": {}
}