{
  "_format": "hh-sol-artifact-1",
  "contractName": "Challenge",
  "sourceName": "contracts/Challenge.sol",
  "abi": [
    {
      "inputs": [],
      "stateMutability": "nonpayable",
      "type": "constructor"
    },
    {
      "inputs": [],
      "name": "NotIdealValue",
      "type": "error"
    },
    {
      "inputs": [],
      "name": "ZeroNot",
      "type": "error"
    },
    {
      "anonymous": false,
      "inputs": [
        {
          "indexed": true,
          "internalType": "address",
          "name": "account",
          "type": "address"
        },
        {
          "indexed": true,
          "internalType": "address",
          "name": "operator",
          "type": "address"
        },
        {
          "indexed": false,
          "internalType": "bool",
          "name": "approved",
          "type": "bool"
        }
      ],
      "name": "ApprovalForAll",
      "type": "event"
    },
    {
      "anonymous": false,
      "inputs": [
        {
          "indexed": true,
          "internalType": "address",
          "name": "previousOwner",
          "type": "address"
        },
        {
          "indexed": true,
          "internalType": "address",
          "name": "newOwner",
          "type": "address"
        }
      ],
      "name": "OwnershipTransferred",
      "type": "event"
    },
    {
      "anonymous": false,
      "inputs": [
        {
          "indexed": true,
          "internalType": "address",
          "name": "operator",
          "type": "address"
        },
        {
          "indexed": true,
          "internalType": "address",
          "name": "from",
          "type": "address"
        },
        {
          "indexed": true,
          "internalType": "address",
          "name": "to",
          "type": "address"
        },
        {
          "indexed": false,
          "internalType": "uint256[]",
          "name": "ids",
          "type": "uint256[]"
        },
        {
          "indexed": false,
          "internalType": "uint256[]",
          "name": "values",
          "type": "uint256[]"
        }
      ],
      "name": "TransferBatch",
      "type": "event"
    },
    {
      "anonymous": false,
      "inputs": [
        {
          "indexed": true,
          "internalType": "address",
          "name": "operator",
          "type": "address"
        },
        {
          "indexed": true,
          "internalType": "address",
          "name": "from",
          "type": "address"
        },
        {
          "indexed": true,
          "internalType": "address",
          "name": "to",
          "type": "address"
        },
        {
          "indexed": false,
          "internalType": "uint256",
          "name": "id",
          "type": "uint256"
        },
        {
          "indexed": false,
          "internalType": "uint256",
          "name": "value",
          "type": "uint256"
        }
      ],
      "name": "TransferSingle",
      "type": "event"
    },
    {
      "anonymous": false,
      "inputs": [
        {
          "indexed": false,
          "internalType": "string",
          "name": "value",
          "type": "string"
        },
        {
          "indexed": true,
          "internalType": "uint256",
          "name": "id",
          "type": "uint256"
        }
      ],
      "name": "URI",
      "type": "event"
    },
    {
      "inputs": [],
      "name": "BalanceStock",
      "outputs": [
        {
          "components": [
            {
              "internalType": "uint256",
              "name": "peso1",
              "type": "uint256"
            },
            {
              "internalType": "uint256",
              "name": "peso5",
              "type": "uint256"
            },
            {
              "internalType": "uint256",
              "name": "peso10",
              "type": "uint256"
            },
            {
              "internalType": "uint256",
              "name": "peso20",
              "type": "uint256"
            },
            {
              "internalType": "uint256",
              "name": "peso50",
              "type": "uint256"
            },
            {
              "internalType": "uint256",
              "name": "peso100",
              "type": "uint256"
            }
          ],
          "internalType": "struct Challenge.Cash",
          "name": "",
          "type": "tuple"
        }
      ],
      "stateMutability": "view",
      "type": "function"
    },
    {
      "inputs": [
        {
          "internalType": "uint256",
          "name": "peso1",
          "type": "uint256"
        },
        {
          "internalType": "uint256",
          "name": "peso5",
          "type": "uint256"
        },
        {
          "internalType": "uint256",
          "name": "peso10",
          "type": "uint256"
        },
        {
          "internalType": "uint256",
          "name": "peso20",
          "type": "uint256"
        },
        {
          "internalType": "uint256",
          "name": "peso50",
          "type": "uint256"
        },
        {
          "internalType": "uint256",
          "name": "peso100",
          "type": "uint256"
        }
      ],
      "name": "ChangeStock",
      "outputs": [],
      "stateMutability": "nonpayable",
      "type": "function"
    },
    {
      "inputs": [
        {
          "internalType": "uint256",
          "name": "_value",
          "type": "uint256"
        }
      ],
      "name": "ConvertDenom",
      "outputs": [
        {
          "components": [
            {
              "internalType": "uint256",
              "name": "peso1",
              "type": "uint256"
            },
            {
              "internalType": "uint256",
              "name": "peso5",
              "type": "uint256"
            },
            {
              "internalType": "uint256",
              "name": "peso10",
              "type": "uint256"
            },
            {
              "internalType": "uint256",
              "name": "peso20",
              "type": "uint256"
            },
            {
              "internalType": "uint256",
              "name": "peso50",
              "type": "uint256"
            },
            {
              "internalType": "uint256",
              "name": "peso100",
              "type": "uint256"
            }
          ],
          "internalType": "struct Challenge.Cash",
          "name": "",
          "type": "tuple"
        }
      ],
      "stateMutability": "view",
      "type": "function"
    },
    {
      "inputs": [
        {
          "internalType": "uint256",
          "name": "_value",
          "type": "uint256"
        }
      ],
      "name": "Mint",
      "outputs": [],
      "stateMutability": "nonpayable",
      "type": "function"
    },
    {
      "inputs": [
        {
          "internalType": "address",
          "name": "account",
          "type": "address"
        },
        {
          "internalType": "uint256",
          "name": "id",
          "type": "uint256"
        }
      ],
      "name": "balanceOf",
      "outputs": [
        {
          "internalType": "uint256",
          "name": "",
          "type": "uint256"
        }
      ],
      "stateMutability": "view",
      "type": "function"
    },
    {
      "inputs": [
        {
          "internalType": "address[]",
          "name": "accounts",
          "type": "address[]"
        },
        {
          "internalType": "uint256[]",
          "name": "ids",
          "type": "uint256[]"
        }
      ],
      "name": "balanceOfBatch",
      "outputs": [
        {
          "internalType": "uint256[]",
          "name": "",
          "type": "uint256[]"
        }
      ],
      "stateMutability": "view",
      "type": "function"
    },
    {
      "inputs": [
        {
          "internalType": "address",
          "name": "account",
          "type": "address"
        },
        {
          "internalType": "address",
          "name": "operator",
          "type": "address"
        }
      ],
      "name": "isApprovedForAll",
      "outputs": [
        {
          "internalType": "bool",
          "name": "",
          "type": "bool"
        }
      ],
      "stateMutability": "view",
      "type": "function"
    },
    {
      "inputs": [],
      "name": "owner",
      "outputs": [
        {
          "internalType": "address",
          "name": "",
          "type": "address"
        }
      ],
      "stateMutability": "view",
      "type": "function"
    },
    {
      "inputs": [],
      "name": "renounceOwnership",
      "outputs": [],
      "stateMutability": "nonpayable",
      "type": "function"
    },
    {
      "inputs": [
        {
          "internalType": "address",
          "name": "from",
          "type": "address"
        },
        {
          "internalType": "address",
          "name": "to",
          "type": "address"
        },
        {
          "internalType": "uint256[]",
          "name": "ids",
          "type": "uint256[]"
        },
        {
          "internalType": "uint256[]",
          "name": "amounts",
          "type": "uint256[]"
        },
        {
          "internalType": "bytes",
          "name": "data",
          "type": "bytes"
        }
      ],
      "name": "safeBatchTransferFrom",
      "outputs": [],
      "stateMutability": "nonpayable",
      "type": "function"
    },
    {
      "inputs": [
        {
          "internalType": "address",
          "name": "from",
          "type": "address"
        },
        {
          "internalType": "address",
          "name": "to",
          "type": "address"
        },
        {
          "internalType": "uint256",
          "name": "id",
          "type": "uint256"
        },
        {
          "internalType": "uint256",
          "name": "amount",
          "type": "uint256"
        },
        {
          "internalType": "bytes",
          "name": "data",
          "type": "bytes"
        }
      ],
      "name": "safeTransferFrom",
      "outputs": [],
      "stateMutability": "nonpayable",
      "type": "function"
    },
    {
      "inputs": [
        {
          "internalType": "address",
          "name": "operator",
          "type": "address"
        },
        {
          "internalType": "bool",
          "name": "approved",
          "type": "bool"
        }
      ],
      "name": "setApprovalForAll",
      "outputs": [],
      "stateMutability": "nonpayable",
      "type": "function"
    },
    {
      "inputs": [
        {
          "internalType": "bytes4",
          "name": "interfaceId",
          "type": "bytes4"
        }
      ],
      "name": "supportsInterface",
      "outputs": [
        {
          "internalType": "bool",
          "name": "",
          "type": "bool"
        }
      ],
      "stateMutability": "view",
      "type": "function"
    },
    {
      "inputs": [
        {
          "internalType": "address",
          "name": "newOwner",
          "type": "address"
        }
      ],
      "name": "transferOwnership",
      "outputs": [],
      "stateMutability": "nonpayable",
      "type": "function"
    },
    {
      "inputs": [
        {
          "internalType": "uint256",
          "name": "",
          "type": "uint256"
        }
      ],
      "name": "uri",
      "outputs": [
        {
          "internalType": "string",
          "name": "",
          "type": "string"
        }
      ],
      "stateMutability": "view",
      "type": "function"
    }
  ],
  "bytecode": "0x60806040523480156200001157600080fd5b506040805160208101909152600081526200002c8162000097565b506200003833620000b0565b60016004556040805160c081018252603280825260056020830181905292820183905260026060830181905260808301819052601460a090930183905290835560068390556007929092556008829055600991909155600a55620001e5565b8051620000ac90600290602084019062000102565b5050565b600380546001600160a01b038381166001600160a01b0319831681179093556040519116919082907f8be0079c531659141344cd1fd0a4f28419497f9722a3daafe3b4186f6b6457e090600090a35050565b8280546200011090620001a8565b90600052602060002090601f0160209004810192826200013457600085556200017f565b82601f106200014f57805160ff19168380011785556200017f565b828001600101855582156200017f579182015b828111156200017f57825182559160200191906001019062000162565b506200018d92915062000191565b5090565b5b808211156200018d576000815560010162000192565b600181811c90821680620001bd57607f821691505b60208210811415620001df57634e487b7160e01b600052602260045260246000fd5b50919050565b61270d80620001f56000396000f3fe608060405234801561001057600080fd5b50600436106100f45760003560e01c806363ecea0911610097578063a22cb46511610066578063a22cb46514610254578063e985e9c514610267578063f242432a146102b0578063f2fde38b146102c357600080fd5b806363ecea09146101bd5780636df73b0b14610211578063715018a6146102245780638da5cb5b1461022c57600080fd5b80630e89341c116100d35780630e89341c146101575780632eb2c2d6146101775780634e1273f41461018a578063521f0106146101aa57600080fd5b8062fdd58e146100f957806301ffc9a71461011f5780630788370314610142575b600080fd5b61010c61010736600461206f565b6102d6565b6040519081526020015b60405180910390f35b61013261012d36600461216a565b610399565b6040519015158152602001610116565b6101556101503660046121a4565b61047e565b005b61016a6101653660046121a4565b61068b565b60405161011691906123a2565b610155610185366004611f24565b61071f565b61019d610198366004612099565b6107ce565b6040516101169190612361565b6101556101b83660046121bd565b61090c565b6101c5610931565b6040516101169190600060c082019050825182526020830151602083015260408301516040830152606083015160608301526080830151608083015260a083015160a083015292915050565b6101c561021f3660046121a4565b6109a7565b610155610f97565b60035460405173ffffffffffffffffffffffffffffffffffffffff9091168152602001610116565b610155610262366004612033565b610fab565b610132610275366004611ef1565b73ffffffffffffffffffffffffffffffffffffffff918216600090815260016020908152604080832093909416825291909152205460ff1690565b6101556102be366004611fce565b610fba565b6101556102d1366004611ecf565b611062565b600073ffffffffffffffffffffffffffffffffffffffff83166103665760405162461bcd60e51b815260206004820152602a60248201527f455243313135353a2061646472657373207a65726f206973206e6f742061207660448201527f616c6964206f776e65720000000000000000000000000000000000000000000060648201526084015b60405180910390fd5b5060009081526020818152604080832073ffffffffffffffffffffffffffffffffffffffff949094168352929052205490565b60007fffffffff0000000000000000000000000000000000000000000000000000000082167fd9b67a2600000000000000000000000000000000000000000000000000000000148061042c57507fffffffff0000000000000000000000000000000000000000000000000000000082167f0e89341c00000000000000000000000000000000000000000000000000000000145b8061047857507f01ffc9a7000000000000000000000000000000000000000000000000000000007fffffffff000000000000000000000000000000000000000000000000000000008316145b92915050565b600260045414156104d15760405162461bcd60e51b815260206004820152601f60248201527f5265656e7472616e637947756172643a207265656e7472616e742063616c6c00604482015260640161035d565b600260045560006104e1826109a7565b80519091501561050b5761050b3360018360000151604051806020016040528060008152506110ff565b602081015115610535576105353360028360200151604051806020016040528060008152506110ff565b60408101511561055f5761055f3360038360400151604051806020016040528060008152506110ff565b606081015115610589576105893360048360600151604051806020016040528060008152506110ff565b6080810151156105b3576105b33360058360800151604051806020016040528060008152506110ff565b60a0810151156105dd576105dd3360068360a00151604051806020016040528060008152506110ff565b8051600580546000906105f1908490612469565b909155505060208101516006805460009061060d908490612469565b9091555050604081015160078054600090610629908490612469565b9091555050606081015160088054600090610645908490612469565b9091555050608081015160098054600090610661908490612469565b909155505060a0810151600a805460009061067d908490612469565b909155505060016004555050565b60606002805461069a90612480565b80601f01602080910402602001604051908101604052809291908181526020018280546106c690612480565b80156107135780601f106106e857610100808354040283529160200191610713565b820191906000526020600020905b8154815290600101906020018083116106f657829003601f168201915b50505050509050919050565b73ffffffffffffffffffffffffffffffffffffffff851633148061074857506107488533610275565b6107ba5760405162461bcd60e51b815260206004820152602f60248201527f455243313135353a2063616c6c6572206973206e6f7420746f6b656e206f776e60448201527f6572206e6f7220617070726f7665640000000000000000000000000000000000606482015260840161035d565b6107c78585858585611256565b5050505050565b606081518351146108475760405162461bcd60e51b815260206004820152602960248201527f455243313135353a206163636f756e747320616e6420696473206c656e67746860448201527f206d69736d617463680000000000000000000000000000000000000000000000606482015260840161035d565b6000835167ffffffffffffffff811115610863576108636125b6565b60405190808252806020026020018201604052801561088c578160200160208202803683370190505b50905060005b8451811015610904576108d78582815181106108b0576108b0612587565b60200260200101518583815181106108ca576108ca612587565b60200260200101516102d6565b8282815181106108e9576108e9612587565b60209081029190910101526108fd8161251f565b9050610892565b509392505050565b610914611542565b600595909555600693909355600791909155600855600955600a55565b61096a6040518060c001604052806000815260200160008152602001600081526020016000815260200160008152602001600081525090565b506040805160c081018252600554815260065460208201526007549181019190915260085460608201526009546080820152600a5460a082015290565b6109e06040518060c001604052806000815260200160008152602001600081526020016000815260200160008152602001600081525090565b81610a17576040517f46cc37d000000000000000000000000000000000000000000000000000000000815260040160405180910390fd5b600060056040518060c001604052908160008201548152602001600182015481526020016002820154815260200160038201548152602001600482015481526020016005820154815250509050610a9d6040518060c001604052806000815260200160008152602001600081526020016000815260200160008152602001600081525090565b836000610aab6064836123f1565b15610b6c5760a084015115610b6c57610ac56064836123f1565b8460a0015110610b2857610ada6064836123f1565b60a08401526064610aeb838261242c565b610af591906123f1565b610aff90826123d9565b9050610b0c6064836123f1565b610b1790606461242c565b610b219083612469565b9150610b6c565b60a080850180519185019190915251610b4290606461242c565b610b4c90826123d9565b90508360a001516064610b5f919061242c565b610b699083612469565b91505b610b776032836123f1565b15610c3857608084015115610c3857610b916032836123f1565b846080015110610bf457610ba66032836123f1565b6080840152610bb66032836123f1565b610bc190603261242c565b610bcb90826123d9565b9050610bd86032836123f1565b610be390603261242c565b610bed9083612469565b9150610c38565b608080850180519185019190915251610c0e90603261242c565b610c1890826123d9565b905083608001516032610c2b919061242c565b610c359083612469565b91505b610c436014836123f1565b15610d0457606084015115610d0457610c5d6014836123f1565b846060015110610cc057610c726014836123f1565b6060840152610c826014836123f1565b610c8d90601461242c565b610c9790826123d9565b9050610ca46014836123f1565b610caf90601461242c565b610cb99083612469565b9150610d04565b606080850180519185019190915251610cda90601461242c565b610ce490826123d9565b905083606001516014610cf7919061242c565b610d019083612469565b91505b610d0f600a836123f1565b15610dd057604084015115610dd057610d29600a836123f1565b846040015110610d8c57610d3e600a836123f1565b6040840152610d4e600a836123f1565b610d5990600a61242c565b610d6390826123d9565b9050610d70600a836123f1565b610d7b90600a61242c565b610d859083612469565b9150610dd0565b604080850180519185019190915251610da690600a61242c565b610db090826123d9565b90508360400151600a610dc3919061242c565b610dcd9083612469565b91505b610ddb6005836123f1565b15610e9c57602084015115610e9c57610df56005836123f1565b846020015110610e5857610e0a6005836123f1565b6020840152610e1a6005836123f1565b610e2590600561242c565b610e2f90826123d9565b9050610e3c6005836123f1565b610e4790600561242c565b610e519083612469565b9150610e9c565b602080850180519185019190915251610e7290600561242c565b610e7c90826123d9565b905083602001516005610e8f919061242c565b610e999083612469565b91505b610ea76001836123f1565b15610f5357835115610f5357610ebe6001836123f1565b845110610f1b57610ed06001836123f1565b8352610edd6001836123f1565b610ee890600161242c565b610ef290826123d9565b9050610eff6001836123f1565b610f0a90600161242c565b610f149083612469565b9150610f53565b835183528351610f2c90600161242c565b610f3690826123d9565b8451909150610f4690600161242c565b610f509083612469565b91505b85811015610f8d576040517fcfe765fd00000000000000000000000000000000000000000000000000000000815260040160405180910390fd5b5090949350505050565b610f9f611542565b610fa960006115a9565b565b610fb6338383611620565b5050565b73ffffffffffffffffffffffffffffffffffffffff8516331480610fe35750610fe38533610275565b6110555760405162461bcd60e51b815260206004820152602f60248201527f455243313135353a2063616c6c6572206973206e6f7420746f6b656e206f776e60448201527f6572206e6f7220617070726f7665640000000000000000000000000000000000606482015260840161035d565b6107c7858585858561175a565b61106a611542565b73ffffffffffffffffffffffffffffffffffffffff81166110f35760405162461bcd60e51b815260206004820152602660248201527f4f776e61626c653a206e6577206f776e657220697320746865207a65726f206160448201527f6464726573730000000000000000000000000000000000000000000000000000606482015260840161035d565b6110fc816115a9565b50565b73ffffffffffffffffffffffffffffffffffffffff84166111885760405162461bcd60e51b815260206004820152602160248201527f455243313135353a206d696e7420746f20746865207a65726f2061646472657360448201527f7300000000000000000000000000000000000000000000000000000000000000606482015260840161035d565b33600061119485611964565b905060006111a185611964565b905060008681526020818152604080832073ffffffffffffffffffffffffffffffffffffffff8b168452909152812080548792906111e09084906123d9565b9091555050604080518781526020810187905273ffffffffffffffffffffffffffffffffffffffff808a1692600092918716917fc3d58168c5ae7397731d063d5bbf3d657854427343f4c083240f7aacaa2d0f62910160405180910390a461124d836000898989896119af565b50505050505050565b81518351146112cd5760405162461bcd60e51b815260206004820152602860248201527f455243313135353a2069647320616e6420616d6f756e7473206c656e6774682060448201527f6d69736d61746368000000000000000000000000000000000000000000000000606482015260840161035d565b73ffffffffffffffffffffffffffffffffffffffff84166113565760405162461bcd60e51b815260206004820152602560248201527f455243313135353a207472616e7366657220746f20746865207a65726f20616460448201527f6472657373000000000000000000000000000000000000000000000000000000606482015260840161035d565b3360005b84518110156114ad57600085828151811061137757611377612587565b60200260200101519050600085838151811061139557611395612587565b6020908102919091018101516000848152808352604080822073ffffffffffffffffffffffffffffffffffffffff8e1683529093529190912054909150818110156114485760405162461bcd60e51b815260206004820152602a60248201527f455243313135353a20696e73756666696369656e742062616c616e636520666f60448201527f72207472616e7366657200000000000000000000000000000000000000000000606482015260840161035d565b60008381526020818152604080832073ffffffffffffffffffffffffffffffffffffffff8e8116855292528083208585039055908b168252812080548492906114929084906123d9565b92505081905550505050806114a69061251f565b905061135a565b508473ffffffffffffffffffffffffffffffffffffffff168673ffffffffffffffffffffffffffffffffffffffff168273ffffffffffffffffffffffffffffffffffffffff167f4a39dc06d4c0dbc64b70af90fd698a233a518aa5d07e595d983b8c0526c8f7fb8787604051611524929190612374565b60405180910390a461153a818787878787611bfb565b505050505050565b60035473ffffffffffffffffffffffffffffffffffffffff163314610fa95760405162461bcd60e51b815260206004820181905260248201527f4f776e61626c653a2063616c6c6572206973206e6f7420746865206f776e6572604482015260640161035d565b6003805473ffffffffffffffffffffffffffffffffffffffff8381167fffffffffffffffffffffffff0000000000000000000000000000000000000000831681179093556040519116919082907f8be0079c531659141344cd1fd0a4f28419497f9722a3daafe3b4186f6b6457e090600090a35050565b8173ffffffffffffffffffffffffffffffffffffffff168373ffffffffffffffffffffffffffffffffffffffff1614156116c25760405162461bcd60e51b815260206004820152602960248201527f455243313135353a2073657474696e6720617070726f76616c2073746174757360448201527f20666f722073656c660000000000000000000000000000000000000000000000606482015260840161035d565b73ffffffffffffffffffffffffffffffffffffffff83811660008181526001602090815260408083209487168084529482529182902080547fffffffffffffffffffffffffffffffffffffffffffffffffffffffffffffff001686151590811790915591519182527f17307eab39ab6107e8899845ad3d59bd9653f200f220920489ca2b5937696c31910160405180910390a3505050565b73ffffffffffffffffffffffffffffffffffffffff84166117e35760405162461bcd60e51b815260206004820152602560248201527f455243313135353a207472616e7366657220746f20746865207a65726f20616460448201527f6472657373000000000000000000000000000000000000000000000000000000606482015260840161035d565b3360006117ef85611964565b905060006117fc85611964565b905060008681526020818152604080832073ffffffffffffffffffffffffffffffffffffffff8c168452909152902054858110156118a25760405162461bcd60e51b815260206004820152602a60248201527f455243313135353a20696e73756666696369656e742062616c616e636520666f60448201527f72207472616e7366657200000000000000000000000000000000000000000000606482015260840161035d565b60008781526020818152604080832073ffffffffffffffffffffffffffffffffffffffff8d8116855292528083208985039055908a168252812080548892906118ec9084906123d9565b9091555050604080518881526020810188905273ffffffffffffffffffffffffffffffffffffffff808b16928c821692918816917fc3d58168c5ae7397731d063d5bbf3d657854427343f4c083240f7aacaa2d0f62910160405180910390a4611959848a8a8a8a8a6119af565b505050505050505050565b6040805160018082528183019092526060916000919060208083019080368337019050509050828160008151811061199e5761199e612587565b602090810291909101015292915050565b73ffffffffffffffffffffffffffffffffffffffff84163b1561153a576040517ff23a6e6100000000000000000000000000000000000000000000000000000000815273ffffffffffffffffffffffffffffffffffffffff85169063f23a6e6190611a269089908990889088908890600401612311565b602060405180830381600087803b158015611a4057600080fd5b505af1925050508015611a8e575060408051601f3d9081017fffffffffffffffffffffffffffffffffffffffffffffffffffffffffffffffe0168201909252611a8b91810190612187565b60015b611b4457611a9a6125e5565b806308c379a01415611ad45750611aaf612601565b80611aba5750611ad6565b8060405162461bcd60e51b815260040161035d91906123a2565b505b60405162461bcd60e51b815260206004820152603460248201527f455243313135353a207472616e7366657220746f206e6f6e204552433131353560448201527f526563656976657220696d706c656d656e746572000000000000000000000000606482015260840161035d565b7fffffffff0000000000000000000000000000000000000000000000000000000081167ff23a6e61000000000000000000000000000000000000000000000000000000001461124d5760405162461bcd60e51b815260206004820152602860248201527f455243313135353a204552433131353552656365697665722072656a6563746560448201527f6420746f6b656e73000000000000000000000000000000000000000000000000606482015260840161035d565b73ffffffffffffffffffffffffffffffffffffffff84163b1561153a576040517fbc197c8100000000000000000000000000000000000000000000000000000000815273ffffffffffffffffffffffffffffffffffffffff85169063bc197c8190611c7290899089908890889088906004016122a6565b602060405180830381600087803b158015611c8c57600080fd5b505af1925050508015611cda575060408051601f3d9081017fffffffffffffffffffffffffffffffffffffffffffffffffffffffffffffffe0168201909252611cd791810190612187565b60015b611ce657611a9a6125e5565b7fffffffff0000000000000000000000000000000000000000000000000000000081167fbc197c81000000000000000000000000000000000000000000000000000000001461124d5760405162461bcd60e51b815260206004820152602860248201527f455243313135353a204552433131353552656365697665722072656a6563746560448201527f6420746f6b656e73000000000000000000000000000000000000000000000000606482015260840161035d565b803573ffffffffffffffffffffffffffffffffffffffff81168114611dc157600080fd5b919050565b600082601f830112611dd757600080fd5b81356020611de4826123b5565b604051611df182826124d4565b8381528281019150858301600585901b87018401881015611e1157600080fd5b60005b85811015611e3057813584529284019290840190600101611e14565b5090979650505050505050565b600082601f830112611e4e57600080fd5b813567ffffffffffffffff811115611e6857611e686125b6565b604051611e9d60207fffffffffffffffffffffffffffffffffffffffffffffffffffffffffffffffe0601f85011601826124d4565b818152846020838601011115611eb257600080fd5b816020850160208301376000918101602001919091529392505050565b600060208284031215611ee157600080fd5b611eea82611d9d565b9392505050565b60008060408385031215611f0457600080fd5b611f0d83611d9d565b9150611f1b60208401611d9d565b90509250929050565b600080600080600060a08688031215611f3c57600080fd5b611f4586611d9d565b9450611f5360208701611d9d565b9350604086013567ffffffffffffffff80821115611f7057600080fd5b611f7c89838a01611dc6565b94506060880135915080821115611f9257600080fd5b611f9e89838a01611dc6565b93506080880135915080821115611fb457600080fd5b50611fc188828901611e3d565b9150509295509295909350565b600080600080600060a08688031215611fe657600080fd5b611fef86611d9d565b9450611ffd60208701611d9d565b93506040860135925060608601359150608086013567ffffffffffffffff81111561202757600080fd5b611fc188828901611e3d565b6000806040838503121561204657600080fd5b61204f83611d9d565b91506020830135801515811461206457600080fd5b809150509250929050565b6000806040838503121561208257600080fd5b61208b83611d9d565b946020939093013593505050565b600080604083850312156120ac57600080fd5b823567ffffffffffffffff808211156120c457600080fd5b818501915085601f8301126120d857600080fd5b813560206120e5826123b5565b6040516120f282826124d4565b8381528281019150858301600585901b870184018b101561211257600080fd5b600096505b8487101561213c5761212881611d9d565b835260019690960195918301918301612117565b509650508601359250508082111561215357600080fd5b5061216085828601611dc6565b9150509250929050565b60006020828403121561217c57600080fd5b8135611eea816126a9565b60006020828403121561219957600080fd5b8151611eea816126a9565b6000602082840312156121b657600080fd5b5035919050565b60008060008060008060c087890312156121d657600080fd5b505084359660208601359650604086013595606081013595506080810135945060a0013592509050565b600081518084526020808501945080840160005b8381101561223057815187529582019590820190600101612214565b509495945050505050565b6000815180845260005b8181101561226157602081850181015186830182015201612245565b81811115612273576000602083870101525b50601f017fffffffffffffffffffffffffffffffffffffffffffffffffffffffffffffffe0169290920160200192915050565b600073ffffffffffffffffffffffffffffffffffffffff808816835280871660208401525060a060408301526122df60a0830186612200565b82810360608401526122f18186612200565b90508281036080840152612305818561223b565b98975050505050505050565b600073ffffffffffffffffffffffffffffffffffffffff808816835280871660208401525084604083015283606083015260a0608083015261235660a083018461223b565b979650505050505050565b602081526000611eea6020830184612200565b6040815260006123876040830185612200565b82810360208401526123998185612200565b95945050505050565b602081526000611eea602083018461223b565b600067ffffffffffffffff8211156123cf576123cf6125b6565b5060051b60200190565b600082198211156123ec576123ec612558565b500190565b600082612427577f4e487b7100000000000000000000000000000000000000000000000000000000600052601260045260246000fd5b500490565b6000817fffffffffffffffffffffffffffffffffffffffffffffffffffffffffffffffff048311821515161561246457612464612558565b500290565b60008282101561247b5761247b612558565b500390565b600181811c9082168061249457607f821691505b602082108114156124ce577f4e487b7100000000000000000000000000000000000000000000000000000000600052602260045260246000fd5b50919050565b7fffffffffffffffffffffffffffffffffffffffffffffffffffffffffffffffe0601f830116810181811067ffffffffffffffff82111715612518576125186125b6565b6040525050565b60007fffffffffffffffffffffffffffffffffffffffffffffffffffffffffffffffff82141561255157612551612558565b5060010190565b7f4e487b7100000000000000000000000000000000000000000000000000000000600052601160045260246000fd5b7f4e487b7100000000000000000000000000000000000000000000000000000000600052603260045260246000fd5b7f4e487b7100000000000000000000000000000000000000000000000000000000600052604160045260246000fd5b600060033d11156125fe5760046000803e5060005160e01c5b90565b600060443d101561260f5790565b6040517ffffffffffffffffffffffffffffffffffffffffffffffffffffffffffffffffc803d016004833e81513d67ffffffffffffffff816024840111818411171561265d57505050505090565b82850191508151818111156126755750505050505090565b843d870101602082850101111561268f5750505050505090565b61269e602082860101876124d4565b509095945050505050565b7fffffffff00000000000000000000000000000000000000000000000000000000811681146110fc57600080fdfea26469706673582212204a8616d3dae9e62990fff0fa874baabb8c0a87a18c4372a7daaa7666cc29f9ca64736f6c63430008060033",
  "linkReferences": {},
  "deployedLinkReferences": {}
}